:100000000C942A000C9447000C9447000C94470071
:100010000C9447000C9447000C9447000C94470044
:100020000C9447000C9447000C9447000C94470034
:100030000C9447000C9447000C9447000C94470024
:100040000C9447000C9447000C9447000C94470014
:100050000C94470011241FBECFE5D4E0DEBFCDBF16
:1000600010E0A0E6B0E0E6E9F1E302C005900D92F1
:10007000A837B107D9F720E0A8E7B0E001C01D928A
:10008000A838B207E1F70E94A1160C94C9180C9485
:100090000000CF93DF93CDB7DEB78AE290E0FC019A
:1000A00020818AE290E02061FC0120838AE290E0D6
:1000B000FC0120818AE290E02860FC01208380E43A
:1000C00090E0FC01208180E490E02D7FFC01208302
:1000D00080E490E0FC01208180E490E02B7FFC0133
:1000E00020838AE290E0FC0120818AE290E02B7F6D
:1000F000FC0120830000DF91CF910895CF93DF931F
:10010000CDB7DEB783E590E0FC01208183E590E088
:100110002F7BFC01208383E590E0FC01208183E5B7
:1001200090E0277FFC01208383E590E0FC012081A3
:1001300083E590E02E7FFC01208383E590E0FC01C5
:10014000208183E590E02260FC01208383E590E03C
:10015000FC01208183E590E02B7FFC0120830000DF
:10016000DF91CF910895CF93DF93CDB7DEB783E5CD
:1001700090E0FC01208183E590E02F7EFC0120834C
:1001800083E590E0FC01208183E590E02F7DFC0178
:1001900020830000DF91CF910895CF93DF930F92DA
:1001A000CDB7DEB7898382E590E02981FC01208309
:1001B00000000F90DF91CF910895CF93DF930F92BE
:1001C000CDB7DEB789838CE590E02981FC012083DF
:1001D00000000F90DF91CF910895CF93DF930F929E
:1001E000CDB7DEB789838981882351F489E590E012
:1001F000FC01208189E590E02160FC0120830CC096
:100200008981813049F489E590E0FC01208189E50C
:1002100090E02260FC01208300000F90DF91CF91DD
:100220000895CF93DF930F92CDB7DEB7898389818D
:10023000882351F489E590E0FC01208189E590E074
:100240002E7FFC0120830CC08981813049F489E52F
:1002500090E0FC01208189E590E02D7FFC01208366
:1002600000000F90DF91CF9108950F931F93CF93CC
:10027000DF93CDB7DEB72A970FB6F894DEBF0FBE77
:10028000CDBF9E838D8386E00E94CD008D819E81AF
:10029000AC0160E070E088EE93E0DC019A01AB0114
:1002A0000E94E2166F83788789879A870AEF10E0A9
:1002B00020E030E06F81788589859A85A9019801D1
:1002C0000E94C016DA01C9019C838B831A821982AD
:1002D0001CC0000088E590E0FC018081882F90E040
:1002E000817099270097B1F388E590E0FC012081A7
:1002F00088E590E02160FC01208389819A81019644
:100300009A83898386E00E94CD0029813A818B817E
:100310009C8128173907E8F2000000002A960FB6E2
:10032000F894DEBF0FBECDBFDF91CF911F910F912B
:1003300008950F931F93CF93DF93CDB7DEB72A971E
:100340000FB6F894DEBF0FBECDBF9E838D838AEFBC
:100350000E94DD008D819E81AC0160E070E088EE3E
:1003600093E0DC019A01AB010E94E2166F8378876B
:1003700089879A870AEF10E020E030E06F81788566
:1003800089859A85A90198010E94C016DA01C901E0
:100390009C838B831A8219821AC0000088E590E042
:1003A000FC0180818695882F90E0817099270097C5
:1003B000A9F388E590E0FC01208188E590E02260C7
:1003C000FC01208389819A8101969A8389832981FE
:1003D0003A818B819C8128173907F9F2F0F20000ED
:1003E00000002A960FB6F894DEBF0FBECDBFDF9196
:1003F000CF911F910F910895CF93DF9300D0CDB788
:10040000DEB789836A838981882F90E083309105E4
:1004100019F18330910509F02CF582309105B1F086
:100420008230910509F0F4F4009721F081309105B4
:1004300039F018C08AE390E02A81FC01208312C0C1
:1004400084E290E02A81FC0120830CC084E390E0E8
:100450002A81FC01208306C081E390E02A81FC010F
:100460002083000000000F900F90DF91CF9108953E
:10047000CF93DF9300D0CDB7DEB789836A838981BC
:10048000882F90E08330910519F18330910509F0B0
:100490002CF582309105B1F08230910509F0F4F429
:1004A000009721F08130910539F018C08BE390E07E
:1004B0002A81FC01208312C085E290E02A81FC01A0
:1004C00020830CC085E390E02A81FC01208306C0D4
:1004D00082E390E02A81FC012083000000000F905D
:1004E0000F90DF91CF910895CF93DF9300D0CDB7D8
:1004F000DEB78A8319828A81882F90E08330910544
:1005000019F18330910509F02CF582309105B1F095
:100510008230910509F0F4F4009721F081309105C3
:1005200039F018C089E390E0FC018081898312C012
:1005300083E290E0FC01808189830CC083E390E03A
:10054000FC018081898306C080E390E0FC0180810A
:100550008983000089810F900F90DF91CF910895DA
:10056000CF93DF9300D00F92CDB7DEB789836A8334
:100570004B838981882F90E08330910509F4A4C0D2
:100580008330910511F00CF0CFC08230910509F451
:100590006BC08230910511F00CF0C6C0009721F0BD
:1005A0008130910589F1C0C08B818130B1F48AE33B
:1005B00090E0FC018081482F8A81282F30E081E083
:1005C00090E002C0880F991F2A95E2F7242F282B6C
:1005D0008AE390E0FC012083A7C08AE390E0FC015D
:1005E0008081482F8A81282F30E081E090E002C08E
:1005F000880F991F2A95E2F78095242F28238AE3F4
:1006000090E0FC01208390C08B818130B1F484E2C2
:1006100090E0FC018081482F8A81282F30E081E022
:1006200090E002C0880F991F2A95E2F7242F282B0B
:1006300084E290E0FC01208377C084E290E0FC013A
:100640008081482F8A81282F30E081E090E002C02D
:10065000880F991F2A95E2F78095242F282384E29A
:1006600090E0FC01208360C08B818130B1F484E391
:1006700090E0FC018081482F8A81282F30E081E0C2
:1006800090E002C0880F991F2A95E2F7242F282BAB
:1006900084E390E0FC01208347C084E390E0FC0108
:1006A0008081482F8A81282F30E081E090E002C0CD
:1006B000880F991F2A95E2F78095242F282384E339
:1006C00090E0FC01208330C08B818130B1F481E364
:1006D00090E0FC018081482F8A81282F30E081E062
:1006E00090E002C0880F991F2A95E2F7242F282B4B
:1006F00081E390E0FC01208316C081E390E0FC01DF
:100700008081482F8A81282F30E081E090E002C06C
:10071000880F991F2A95E2F78095242F282381E3DB
:1007200090E0FC012083000000000F900F900F90DC
:10073000DF91CF910895CF93DF9300D00F92CDB783
:10074000DEB789836A834B838981882F90E0833069
:10075000910509F4A4C08330910511F00CF0CFC0CD
:100760008230910509F46BC08230910511F00CF0D4
:10077000C6C0009721F08130910589F1C0C08B81FE
:100780008130B1F48BE390E0FC018081482F8A81B5
:10079000282F30E081E090E002C0880F991F2A9551
:1007A000E2F7242F282B8BE390E0FC012083A7C0E5
:1007B0008BE390E0FC018081482F8A81282F30E074
:1007C00081E090E002C0880F991F2A95E2F780959A
:1007D000242F28238BE390E0FC01208390C08B81A1
:1007E0008130B1F485E290E0FC018081482F8A815C
:1007F000282F30E081E090E002C0880F991F2A95F1
:10080000E2F7242F282B85E290E0FC01208377C0BB
:1008100085E290E0FC018081482F8A81282F30E01A
:1008200081E090E002C0880F991F2A95E2F7809539
:10083000242F282385E290E0FC01208360C08B8177
:100840008130B1F485E390E0FC018081482F8A81FA
:10085000282F30E081E090E002C0880F991F2A9590
:10086000E2F7242F282B85E390E0FC01208347C08A
:1008700085E390E0FC018081482F8A81282F30E0B9
:1008800081E090E002C0880F991F2A95E2F78095D9
:10089000242F282385E390E0FC01208330C08B8146
:1008A0008130B1F482E390E0FC018081482F8A819D
:1008B000282F30E081E090E002C0880F991F2A9530
:1008C000E2F7242F282B82E390E0FC01208316C05E
:1008D00082E390E0FC018081482F8A81282F30E05C
:1008E00081E090E002C0880F991F2A95E2F7809579
:1008F000242F282382E390E0FC01208300000000E5
:100900000F900F900F90DF91CF910895CF93DF93C9
:1009100000D00F92CDB7DEB78A836B8319828A81AC
:10092000882F90E08330910509F449C08330910508
:1009300011F00CF056C08230910579F182309105AA
:1009400011F00CF04EC0009721F08130910599F024
:1009500048C089E390E0FC018081882F90E02B81E2
:10096000222F30E0022E02C0959587950A94E2F777
:100970008170898336C083E290E0FC018081882FFA
:1009800090E02B81222F30E0022E02C095958795B2
:100990000A94E2F78170898324C083E390E0FC012C
:1009A0008081882F90E02B81222F30E0022E02C020
:1009B000959587950A94E2F78170898312C080E348
:1009C00090E0FC018081882F90E02B81222F30E085
:1009D000022E02C0959587950A94E2F7817089836B
:1009E000000089810F900F900F90DF91CF910895B3
:1009F000CF93DF9300D0CDB7DEB789836A83898137
:100A0000882F90E08330910509F455C0833091051B
:100A100011F00CF066C082309105B9F18230910579
:100A200011F00CF05EC0009721F081309105B9F013
:100A300058C08BE390E0FC018081482F8A81282FE9
:100A400030E081E090E002C0880F991F2A95E2F71C
:100A5000242F28278BE390E0FC01208342C085E20D
:100A600090E0FC018081482F8A81282F30E081E0CE
:100A700090E002C0880F991F2A95E2F7242F2827BB
:100A800085E290E0FC0120832CC085E390E0FC012E
:100A90008081482F8A81282F30E081E090E002C0D9
:100AA000880F991F2A95E2F7242F282785E390E0E5
:100AB000FC01208316C082E390E0FC018081482F76
:100AC0008A81282F30E081E090E002C0880F991FD2
:100AD0002A95E2F7242F282782E390E0FC01208367
:100AE000000000000F900F90DF91CF910895CF93F9
:100AF000DF9300D0CDB7DEB789836A8340E06A8197
:100B000089810E94B00241E06A8189810E949B0331
:100B100000000F900F90DF91CF910895CF93DF9356
:100B2000CDB7DEB786E290E0FC01208186E290E05E
:100B30002068FC01208386E290E0FC01208186E2AF
:100B400090E02860FC01208387E290E0FC01208196
:100B500087E290E02F73FC01208387E290E0FC01A4
:100B6000208187E290E02064FC01208387E290E00E
:100B7000FC01208187E290E02062FC01208386E274
:100B800090E0FC01208186E290E0287FFC01208338
:100B900086E290E0FC01208186E290E02660FC0184
:100BA00020830000DF91CF910895CF93DF930F92C0
:100BB000CDB7DEB789838981882F90E0009721F037
:100BC0008130910559F014C086E290E0FC0120814B
:100BD00086E290E0277FFC0120830AC086E290E055
:100BE000FC01208186E290E02860FC012083000067
:100BF00000000F90DF91CF910895CF93DF9300D045
:100C0000CDB7DEB78A8387E290E0FC01208187E2DE
:100C100090E0207EFC01208387E290E0FC0130819F
:100C200087E290E02A81232BFC01208386E290E07A
:100C3000FC01208186E290E02064FC01208300001A
:100C400086E290E0FC01808182958F70882F90E091
:100C5000817099270097A1F386E290E0FC01208142
:100C600086E290E02061FC01208385E290E0FC01B7
:100C70008081898389810F900F90DF91CF910895B2
:100C8000CF93DF93CDB7DEB7C454D1090FB6F89434
:100C9000DEBF0FBECDBF41E064E082E00E94B00243
:100CA00041E065E082E00E94B00241E066E082E05F
:100CB0000E94B00241E067E082E00E94B00241E0A1
:100CC00062E082E00E94B00241E061E082E00E94C6
:100CD000B00241E060E082E00E94B00280E090E07B
:100CE000A0EAB1E48F87988BA98BBA8B20E030E023
:100CF0004AE753E46F85788989899A890E941C188C
:100D00006DA37EA38FA398A78DA19EA1AFA1B8A527
:100D10008B8B9C8BAD8BBE8B20E030E040E85FE39B
:100D20006B897C898D899E890E94FC1688232CF40E
:100D300081E090E0988F8F8B55C020E03FEF4FE728
:100D400057E46B897C898D899E890E9417188823B6
:100D5000D9F1D4F120E030E040E251E46F857889A8
:100D600089899A890E941C1869A77AA78BA79CA7D2
:100D700089A59AA5ABA5BCA589A39AA3ABA3BCA33F
:100D800069A17AA18BA19CA10E9473176DA77EA770
:100D90008FA798ABADA5BEA5B88FAF8B10C089E16A
:100DA00090E09A8F898F898D9A8D0197F1F79A8FAC
:100DB000898F00008F89988D0197988F8F8B8F89ED
:100DC000988D009761F719C06B897C898D899E8900
:100DD0000E94731769AB7AAB8BAB9CAB89A99AA9BC
:100DE000988F8F8B8F89988D9C8F8B8F8B8D9C8DFF
:100DF0000197F1F79C8F8B8F000082E00E94B00773
:100E000088E20E94B00781E00E94B00782E00E9461
:100E1000B00786E00E94B0078CE00E94B00780E037
:100E200090E0A0E0B0E489839A83AB83BC8320E0A8
:100E300030E04AE753E469817A818B819C810E948A
:100E40001C186DAB7EAB8FAB98AF8DA99EA9AFA9D7
:100E5000B8AD8D839E83AF83B88720E030E040E853
:100E60005FE36D817E818F8198850E94FC168823C7
:100E70002CF481E090E09A8789875CC020E03FEF06
:100E80004FE757E46D817E818F8198850E94171806
:100E9000882309F00CF43CC020E030E040E251E44B
:100EA00069817A818B819C810E941C1869AF7AAF1D
:100EB0008BAF9CAF89AD9AADABADBCAD8D8F9E8F26
:100EC000AF8FB8A36D8D7E8D8F8D98A10E94731703
:100ED00021966CAF7DAF8EAF9FAF2197ADADBEAD0C
:100EE000BA87A98710C089E190E09C878B878B85A2
:100EF0009C850197F1F79C878B87000089859A85EF
:100F000001979A87898789859A85009761F71DC01F
:100F10006D817E818F8198850E94731725966CAFB5
:100F20007DAF8EAF9FAF259723968EAD9FAD239754
:100F30009A87898789859A859E878D878D859E85E5
:100F40000197F1F79E878D8700000000CC5BDF4F93
:100F50000FB6F894DEBF0FBECDBFDF91CF910895DD
:100F60000F931F93CF93DF93CDB7DEB7CB5FD1093C
:100F70000FB6F894DEBF0FBECDBF9E0121593F4F83
:100F8000D9018C93CE0181599F4FFC0180818295BC
:100F90008F708170482F64E082E00E949B03CE0135
:100FA00081599F4FDC018C91829586958770817065
:100FB000482F65E082E00E949B03CE0181599F4F3C
:100FC000FC01808182958695869583708170482F7B
:100FD00066E082E00E949B03CE0181599F4FDC01B5
:100FE0008C91881F8827881F482F67E082E00E9425
:100FF0009B0340E060E082E00E949B0341E062E0EE
:1010000082E00E949B039E01215B3F4F80E090E0C5
:10101000A0E8BFE3F90180839183A283B3838E01AB
:101020000D5A1F4FCE01815B9F4F2BEA3AEA4AEAE5
:101030005EE3DC016D917D918D919C910E941C1865
:10104000C058DF4F688379838A839B83C058D04020
:10105000C058DF4F88819981AA81BB81C058D04098
:10106000F80180839183A283B3838E01095A1F4FB5
:10107000CE01815B9F4F20E030E040E85EE3DC0181
:101080006D917D918D919C910E941C18CC57DF4FE2
:10109000688379838A839B83C458D040CC57DF4FC1
:1010A00088819981AA81BB81C458D040F80180838E
:1010B0009183A283B383CE018D5A9F4F20E030E00D
:1010C00040E85FE3DC016D917D918D919C910E94E0
:1010D000FC1688233CF4CE01855A9F4F21E0FC0189
:1010E0002083A0C1CE01895A9F4F20E03FEF4FE7F8
:1010F00057E4DC016D917D918D919C910E941718B0
:10110000882309F00CF426C1CE01815B9F4F20E0BB
:1011100030E04AE754E4FC0160817181828193816F
:101120000E940117C857DF4F688379838A839B83A6
:10113000C858D040C857DF4F88819981AA81BB81A8
:10114000C858D0409E01245A3F4FF90180839183B3
:10115000A283B3838E01005A1F4FCE01845A9F4F42
:1011600020E030E04AE753E4DC016D917D918D9100
:101170009C910E941C18C457DF4F688379838A832F
:101180009B83CC58D040C457DF4F88819981AA8176
:10119000BB81CC58D040F80180839183A283B38374
:1011A000CE01805A9F4F20E030E040E85FE3DC0151
:1011B0006D917D918D919C910E94FC1688234CF439
:1011C000CE018C599F4F21E030E0FC013183208318
:1011D000A5C0CE01805A9F4F20E03FEF4FE757E474
:1011E000DC016D917D918D919C910E94171888234F
:1011F00009F00CF475C0CE01845A9F4F20E030E016
:1012000040E251E4FC0160817181828193810E94FE
:101210001C18C057DF4F688379838A839B83C0592A
:10122000D040C057DF4F88819981AA81BB81C059C6
:10123000D040C458DF4F88839983AA83BB83CC579F
:10124000D0408E010C591F4FC458DF4F68817981FF
:101250008A819B81CC57D0400E947317CC56DF4FB8
:10126000688379838A839B83C459D040CC56DF4FEF
:10127000E881F981C459D040D8011196FC93EE93CE
:1012800026C0CE018A599F4F29E130E0DC012D9321
:101290003C93CE018A599F4FFC0180819181019737
:1012A000F1F79E012A593F4FD9018D939C9300007D
:1012B000CE018C599F4F9E012C593F4FF90120813F
:1012C000318121503109DC0111963C932E93CE01DE
:1012D0008C599F4FFC0180819181009791F6A2C0AB
:1012E0008E010C591F4FCE01805A9F4FDC016D912A
:1012F0007D918D919C910E947317C856DF4F688332
:1013000079838A839B83C859D040C856DF4F888130
:101310009981C859D040F80191838083CE018859C2
:101320009F4F9E012C593F4FD9012D913C91FC01BB
:1013300031832083CE0188599F4FDC018D919C9190
:1013400011970197F1F79E0128593F4FF9019183B9
:10135000808368C0CE018D5A9F4F20E030E04FE778
:1013600053E4DC016D917D918D919C910E94171841
:101370008823E1F1DCF18E0106591F4FCE01895A15
:101380009F4FFC0160817181828193810E9473175C
:10139000C456DF4F688379838A839B83CC59D040BE
:1013A000C456DF4FE881F981CC59D040D801ED9384
:1013B000FC93CE0184599F4F9E0126593F4FD9017E
:1013C0002D913C91FC0131832083CE0184599F4FA4
:1013D000DC018D919C9111970197F1F79E012459A1
:1013E0003F4FF90191838083000034C08E01055A7C
:1013F0001F4FCE018D5A9F4FDC016D917D918D91D4
:101400009C910E947317C056DF4F688379838A834B
:101410009B83C05AD040C056DF4F8881C05AD0400D
:10142000F8018083CE0182599F4F9E01255A3F4F7C
:10143000D9012C91FC012083CE0182599F4FDC0100
:101440008C91282F2A95F1F7CE0182599F4FFC01EC
:101450002083000040E062E082E00E949B0380E085
:1014600090E0A8E4B3E48FA798ABA9ABBAAB2BEAA2
:101470003AEA4AEA5EE36FA578A989A99AA90E9487
:101480001C18CC55DF4F688379838A839B83C45AA9
:10149000D040CC55DF4F88819981AA81BB81C45A45
:1014A000D0408BAB9CABADABBEAB20E030E040E8B6
:1014B0005EE36FA578A989A99AA90E941C18C8554E
:1014C000DF4F688379838A839B83C85AD040C8558D
:1014D000DF4F88819981AA81BB81C85AD0408FABE8
:1014E00098AFA9AFBAAF20E030E040E85FE36BA966
:1014F0007CA98DA99EA90E94FC1688231CF481E07A
:101500008BAF78C120E03FEF4FE757E46FA978AD8C
:1015100089AD9AAD0E941718882309F00CF412C106
:1015200020E030E04AE754E46FA578A989A99AA998
:101530000E940117C455DF4F688379838A839B8398
:10154000CC5AD040C455DF4F88819981AA81BB8194
:10155000CC5AD0408CAF9DAFAEAFBFAF8E01005C18
:101560001F4F20E030E04AE753E46CAD7DAD8EAD17
:101570009FAD0E941C18C055DF4F688379838A8312
:101580009B83C05BD040C055DF4F88819981AA8181
:10159000BB81C05BD040F80180839183A283B38379
:1015A000CE01805C9F4F20E030E040E85FE3DC014B
:1015B0006D917D918D919C910E94FC1688234CF435
:1015C000CE018C5B9F4F21E030E0FC013183208312
:1015D0009DC0CE01805C9F4F20E03FEF4FE757E476
:1015E000DC016D917D918D919C910E94171888234B
:1015F00009F00CF46DC020E030E040E251E46CAD45
:101600007DAD8EAD9FAD0E941C18CC54DF4F68831A
:1016100079838A839B83C45BD040CC54DF4F88811D
:101620009981AA81BB81C45BD040EC968CAF9DAF01
:10163000AEAFBFAFEC978E010C5B1F4FEC966CAD5D
:101640007DAD8EAD9FADEC970E947317C854DF4FF0
:10165000688379838A839B83C85BD040C854DF4FFB
:10166000E881F981C85BD040D8011196FC93EE93D4
:1016700026C0CE018A5B9F4F29E130E0DC012D932B
:101680003C93CE018A5B9F4FFC0180819181019741
:10169000F1F79E012A5B3F4FD9018D939C93000087
:1016A000CE018C5B9F4F9E012C5B3F4FF901208147
:1016B000318121503109DC0111963C932E93CE01EA
:1016C0008C5B9F4FFC0180819181009791F692C0C5
:1016D0008E010C5B1F4FCE01805C9F4FDC016D9132
:1016E0007D918D919C910E947317C454DF4F688344
:1016F00079838A839B83CC5BD040C454DF4F88813D
:101700009981CC5BD040F80191838083CE01885BC6
:101710009F4F9E012C5B3F4FD9012D913C91FC01C5
:1017200031832083CE01885B9F4FDC018D919C919A
:1017300011970197F1F79E01285B3F4FF9019183C3
:10174000808358C020E030E04FE753E46BA97CA9C8
:101750008DA99EA90E9417188823C1F1BCF18E01A2
:10176000065B1F4F6FA978AD89AD9AAD0E947317C4
:10177000C054DF4F688379838A839B83C05CD040E9
:10178000C054DF4FE881F981C05CD040D801ED93AF
:10179000FC93CE01845B9F4F9E01265B3F4FD90196
:1017A0002D913C91FC0131832083CE01845B9F4FBE
:1017B000DC018D919C9111970197F1F79E01245BBB
:1017C0003F4FF90191838083000028C06BA97CA959
:1017D0008DA99EA90E947317CC53DF4F688379832C
:1017E0008A839B83C45CD040CC53DF4FF881C45CB8
:1017F000D040FBAFCE01825B9F4F2BADDC012C9321
:10180000CE01825B9F4FFC018081282F2A95F1F742
:10181000CE01825B9F4FDC012C930000CE018159E9
:101820009F4FFC0180818170482F64E082E00E941C
:101830009B03CE0181599F4FDC018C91869581706D
:10184000482F65E082E00E949B03CE0181599F4FA3
:10185000FC018081869586958170482F66E082E044
:101860000E949B03CE0181599F4FDC018C9186958C
:10187000869586958170482F67E082E00E949B03E1
:1018800041E062E082E00E949B0380E090E0A0E8FB
:10189000BFE38F87988BA98BBA8B2BEA3AEA4AEA87
:1018A0005EE36F85788989899A890E941C18C853DC
:1018B000DF4F688379838A839B83C85CD040C85399
:1018C000DF4F88819981AA81BB81C85CD0408B8B16
:1018D0009C8BAD8BBE8B20E030E040E85EE36F85F3
:1018E000788989899A890E941C18C453DF4F6883BC
:1018F00079838A839B83CC5CD040C453DF4F88813B
:101900009981AA81BB81CC5CD0408F8B988FA98FA5
:10191000BA8F20E030E040E85FE36B897C898D89F5
:101920009E890E94FC1688231CF481E08B8F1BC1CA
:1019300020E03FEF4FE757E46F89788D898D9A8DCE
:101940000E941718882309F00CF4CAC020E030E088
:101950004AE754E46F85788989899A890E9401173A
:10196000C053DF4F688379838A839B83C05DD040F7
:10197000C053DF4F88819981AA81BB81C05DD0406F
:101980008C8F9D8FAE8FBF8F20E030E04AE753E40D
:101990006C8D7D8D8E8D9F8D0E941C18CC52DF4FDB
:1019A000688379838A839B83C45DD040CC52DF4FA8
:1019B00088819981AA81BB81C45DD04088A399A305
:1019C000AAA3BBA320E030E040E85FE368A179A1CF
:1019D0008AA19BA10E94FC1688232CF481E090E050
:1019E0009DA38CA372C020E03FEF4FE757E468A1AE
:1019F00079A18AA19BA10E941718882309F00CF4F1
:101A00004EC020E030E040E251E46C8D7D8D8E8D43
:101A10009F8D0E941C18C852DF4F688379838A8388
:101A20009B83C85DD040C852DF4F88819981AA81CD
:101A3000BB81C85DD040E8968CAF9DAFAEAFBFAF65
:101A4000E897E8966CAD7DAD8EAD9FADE8970E94AE
:101A50007317C452DF4F688379838A839B83CC5D7D
:101A6000D040C452DF4FA881B981CC5DD040BDA326
:101A7000ACA310C089E190E09FA38EA38EA19FA18B
:101A80000197F1F79FA38EA300008CA19DA1019760
:101A90009DA38CA38CA19DA1009761F764C068A150
:101AA00079A18AA19BA10E947317C052DF4F68835E
:101AB00079838A839B83C05ED040C052DF4FE88128
:101AC000F981C05ED040FDA3ECA38CA19DA199A794
:101AD00088A788A599A50197F1F799A788A743C07A
:101AE00020E030E04FE753E46B897C898D899E8943
:101AF0000E941718882319F114F16F89788D898D48
:101B00009A8D0E947317CC51DF4F688379838A8343
:101B10009B83C45ED040CC51DF4F88819981C45EE5
:101B2000D0409BA78AA78AA59BA59DA78CA78CA51B
:101B30009DA50197F1F79DA78CA700001BC06B899D
:101B40007C898D899E890E947317C851DF4F6883F5
:101B500079838A839B83C85ED040C851DF4F9881C8
:101B6000C85ED0409B8F8B8D8EA78EA58A95F1F78E
:101B70008EA7000040E062E082E00E949B0380E0CC
:101B800090E0A0E0B0E489839A83AB83BC8320E03B
:101B900030E04AE753E469817A818B819C810E941D
:101BA0001C18C451DF4F688379838A839B83CC5E82
:101BB000D040C451DF4F88819981AA81BB81CC5E1E
:101BC000D0408D839E83AF83B88720E030E040E82B
:101BD0005FE36D817E818F8198850E94FC1688234A
:101BE0002CF481E090E09A87898772C020E03FEF73
:101BF0004FE757E46D817E818F8198850E94171889
:101C0000882309F00CF44EC020E030E040E251E4BB
:101C100069817A818B819C810E941C18C051DF4FA1
:101C2000688379838A839B83C05FD040C051DF4F34
:101C300088819981AA81BB81C05FD040E4968CAF36
:101C40009DAFAEAFBFAFE497E4966CAD7DAD8EAD0A
:101C50009FADE4970E947317CC50DF4F6883798360
:101C60008A839B83C45FD040CC50DF4FA881B98169
:101C7000C45FD040BA87A98710C089E190E09C87F3
:101C80008B878B859C850197F1F79C878B8700005C
:101C900089859A8501979A87898789859A8500978A
:101CA00061F721C06D817E818F8198850E947317B5
:101CB000C850DF4F688379838A839B83C85FD04095
:101CC000C850DF4FE881F981C85FD040FA87E987C3
:101CD00089859A859E878D878D859E850197F1F7E9
:101CE0009E878D8700000000C550DF4F0FB6F89427
:101CF000DEBF0FBECDBFDF91CF911F910F91089531
:101D00000F931F93CF93DF93CDB7DEB7CB5FD1098E
:101D10000FB6F894DEBF0FBECDBF9E0121593F4FD5
:101D2000D9018C93CE0181599F4FFC01808182950E
:101D30008F708170482F64E082E00E949B03CE0187
:101D400081599F4FDC018C918295869587708170B7
:101D5000482F65E082E00E949B03CE0181599F4F8E
:101D6000FC01808182958695869583708170482FCD
:101D700066E082E00E949B03CE0181599F4FDC0107
:101D80008C91881F8827881F482F67E082E00E9477
:101D90009B0341E060E082E00E949B0341E062E03F
:101DA00082E00E949B039E01215B3F4F80E090E018
:101DB000A0E8BFE3F90180839183A283B3838E01FE
:101DC0000D5A1F4FCE01815B9F4F2BEA3AEA4AEA38
:101DD0005EE3DC016D917D918D919C910E941C18B8
:101DE000C058DF4F688379838A839B83C058D04073
:101DF000C058DF4F88819981AA81BB81C058D040EB
:101E0000F80180839183A283B3838E01095A1F4F07
:101E1000CE01815B9F4F20E030E040E85EE3DC01D3
:101E20006D917D918D919C910E941C18CC57DF4F34
:101E3000688379838A839B83C458D040CC57DF4F13
:101E400088819981AA81BB81C458D040F8018083E0
:101E50009183A283B383CE018D5A9F4F20E030E05F
:101E600040E85FE3DC016D917D918D919C910E9432
:101E7000FC1688233CF4CE01855A9F4F21E0FC01DB
:101E80002083A0C1CE01895A9F4F20E03FEF4FE74A
:101E900057E4DC016D917D918D919C910E94171802
:101EA000882309F00CF426C1CE01815B9F4F20E00E
:101EB00030E04AE754E4FC016081718182819381C2
:101EC0000E940117C857DF4F688379838A839B83F9
:101ED000C858D040C857DF4F88819981AA81BB81FB
:101EE000C858D0409E01245A3F4FF9018083918306
:101EF000A283B3838E01005A1F4FCE01845A9F4F95
:101F000020E030E04AE753E4DC016D917D918D9152
:101F10009C910E941C18C457DF4F688379838A8381
:101F20009B83CC58D040C457DF4F88819981AA81C8
:101F3000BB81CC58D040F80180839183A283B383C6
:101F4000CE01805A9F4F20E030E040E85FE3DC01A3
:101F50006D917D918D919C910E94FC1688234CF48B
:101F6000CE018C599F4F21E030E0FC01318320836A
:101F7000A5C0CE01805A9F4F20E03FEF4FE757E4C6
:101F8000DC016D917D918D919C910E9417188823A1
:101F900009F00CF475C0CE01845A9F4F20E030E068
:101FA00040E251E4FC0160817181828193810E9451
:101FB0001C18C057DF4F688379838A839B83C0597D
:101FC000D040C057DF4F88819981AA81BB81C05919
:101FD000D040C458DF4F88839983AA83BB83CC57F2
:101FE000D0408E010C591F4FC458DF4F6881798152
:101FF0008A819B81CC57D0400E947317CC56DF4F0B
:10200000688379838A839B83C459D040CC56DF4F41
:10201000E881F981C459D040D8011196FC93EE9320
:1020200026C0CE018A599F4F29E130E0DC012D9373
:102030003C93CE018A599F4FFC0180819181019789
:10204000F1F79E012A593F4FD9018D939C930000CF
:10205000CE018C599F4F9E012C593F4FF901208191
:10206000318121503109DC0111963C932E93CE0130
:102070008C599F4FFC0180819181009791F6A2C0FD
:102080008E010C591F4FCE01805A9F4FDC016D917C
:102090007D918D919C910E947317C856DF4F688384
:1020A00079838A839B83C859D040C856DF4F888183
:1020B0009981C859D040F80191838083CE01885915
:1020C0009F4F9E012C593F4FD9012D913C91FC010E
:1020D00031832083CE0188599F4FDC018D919C91E3
:1020E00011970197F1F79E0128593F4FF90191830C
:1020F000808368C0CE018D5A9F4F20E030E04FE7CB
:1021000053E4DC016D917D918D919C910E94171893
:102110008823E1F1DCF18E0106591F4FCE01895A67
:102120009F4FFC0160817181828193810E947317AE
:10213000C456DF4F688379838A839B83CC59D04010
:10214000C456DF4FE881F981CC59D040D801ED93D6
:10215000FC93CE0184599F4F9E0126593F4FD901D0
:102160002D913C91FC0131832083CE0184599F4FF6
:10217000DC018D919C9111970197F1F79E012459F3
:102180003F4FF90191838083000034C08E01055ACE
:102190001F4FCE018D5A9F4FDC016D917D918D9126
:1021A0009C910E947317C056DF4F688379838A839E
:1021B0009B83C05AD040C056DF4F8881C05AD04060
:1021C000F8018083CE0182599F4F9E01255A3F4FCF
:1021D000D9012C91FC012083CE0182599F4FDC0153
:1021E0008C91282F2A95F1F7CE0182599F4FFC013F
:1021F0002083000040E062E082E00E949B0380E0D8
:1022000090E0A8E4B3E48FA798ABA9ABBAAB2BEAF4
:102210003AEA4AEA5EE36FA578A989A99AA90E94D9
:102220001C18CC55DF4F688379838A839B83C45AFB
:10223000D040CC55DF4F88819981AA81BB81C45A97
:10224000D0408BAB9CABADABBEAB20E030E040E808
:102250005EE36FA578A989A99AA90E941C18C855A0
:10226000DF4F688379838A839B83C85AD040C855DF
:10227000DF4F88819981AA81BB81C85AD0408FAB3A
:1022800098AFA9AFBAAF20E030E040E85FE36BA9B8
:102290007CA98DA99EA90E94FC1688231CF481E0CC
:1022A0008BAF78C120E03FEF4FE757E46FA978ADDF
:1022B00089AD9AAD0E941718882309F00CF412C159
:1022C00020E030E04AE754E46FA578A989A99AA9EB
:1022D0000E940117C455DF4F688379838A839B83EB
:1022E000CC5AD040C455DF4F88819981AA81BB81E7
:1022F000CC5AD0408CAF9DAFAEAFBFAF8E01005C6B
:102300001F4F20E030E04AE753E46CAD7DAD8EAD69
:102310009FAD0E941C18C055DF4F688379838A8364
:102320009B83C05BD040C055DF4F88819981AA81D3
:10233000BB81C05BD040F80180839183A283B383CB
:10234000CE01805C9F4F20E030E040E85FE3DC019D
:102350006D917D918D919C910E94FC1688234CF487
:10236000CE018C5B9F4F21E030E0FC013183208364
:102370009DC0CE01805C9F4F20E03FEF4FE757E4C8
:10238000DC016D917D918D919C910E94171888239D
:1023900009F00CF46DC020E030E040E251E46CAD97
:1023A0007DAD8EAD9FAD0E941C18CC54DF4F68836D
:1023B00079838A839B83C45BD040CC54DF4F888170
:1023C0009981AA81BB81C45BD040EC968CAF9DAF54
:1023D000AEAFBFAFEC978E010C5B1F4FEC966CADB0
:1023E0007DAD8EAD9FADEC970E947317C854DF4F43
:1023F000688379838A839B83C85BD040C854DF4F4E
:10240000E881F981C85BD040D8011196FC93EE9326
:1024100026C0CE018A5B9F4F29E130E0DC012D937D
:102420003C93CE018A5B9F4FFC0180819181019793
:10243000F1F79E012A5B3F4FD9018D939C930000D9
:10244000CE018C5B9F4F9E012C5B3F4FF901208199
:10245000318121503109DC0111963C932E93CE013C
:102460008C5B9F4FFC0180819181009791F692C017
:102470008E010C5B1F4FCE01805C9F4FDC016D9184
:102480007D918D919C910E947317C454DF4F688396
:1024900079838A839B83CC5BD040C454DF4F88818F
:1024A0009981CC5BD040F80191838083CE01885B19
:1024B0009F4F9E012C5B3F4FD9012D913C91FC0118
:1024C00031832083CE01885B9F4FDC018D919C91ED
:1024D00011970197F1F79E01285B3F4FF901918316
:1024E000808358C020E030E04FE753E46BA97CA91B
:1024F0008DA99EA90E9417188823C1F1BCF18E01F5
:10250000065B1F4F6FA978AD89AD9AAD0E94731716
:10251000C054DF4F688379838A839B83C05CD0403B
:10252000C054DF4FE881F981C05CD040D801ED9301
:10253000FC93CE01845B9F4F9E01265B3F4FD901E8
:102540002D913C91FC0131832083CE01845B9F4F10
:10255000DC018D919C9111970197F1F79E01245B0D
:102560003F4FF90191838083000028C06BA97CA9AB
:102570008DA99EA90E947317CC53DF4F688379837E
:102580008A839B83C45CD040CC53DF4FF881C45C0A
:10259000D040FBAFCE01825B9F4F2BADDC012C9373
:1025A000CE01825B9F4FFC018081282F2A95F1F795
:1025B000CE01825B9F4FDC012C930000CE0181593C
:1025C0009F4FFC0180818170482F64E082E00E946F
:1025D0009B03CE0181599F4FDC018C9186958170C0
:1025E000482F65E082E00E949B03CE0181599F4FF6
:1025F000FC018081869586958170482F66E082E097
:102600000E949B03CE0181599F4FDC018C918695DE
:10261000869586958170482F67E082E00E949B0333
:1026200041E062E082E00E949B0380E090E0A0E84D
:10263000BFE38F87988BA98BBA8B2BEA3AEA4AEAD9
:102640005EE36F85788989899A890E941C18C8532E
:10265000DF4F688379838A839B83C85CD040C853EB
:10266000DF4F88819981AA81BB81C85CD0408B8B68
:102670009C8BAD8BBE8B20E030E040E85EE36F8545
:10268000788989899A890E941C18C453DF4F68830E
:1026900079838A839B83CC5CD040C453DF4F88818D
:1026A0009981AA81BB81CC5CD0408F8B988FA98FF8
:1026B000BA8F20E030E040E85FE36B897C898D8948
:1026C0009E890E94FC1688231CF481E08B8F1BC11D
:1026D00020E03FEF4FE757E46F89788D898D9A8D21
:1026E0000E941718882309F00CF4CAC020E030E0DB
:1026F0004AE754E46F85788989899A890E9401178D
:10270000C053DF4F688379838A839B83C05DD04049
:10271000C053DF4F88819981AA81BB81C05DD040C1
:102720008C8F9D8FAE8FBF8F20E030E04AE753E45F
:102730006C8D7D8D8E8D9F8D0E941C18CC52DF4F2D
:10274000688379838A839B83C45DD040CC52DF4FFA
:1027500088819981AA81BB81C45DD04088A399A357
:10276000AAA3BBA320E030E040E85FE368A179A121
:102770008AA19BA10E94FC1688232CF481E090E0A2
:102780009DA38CA372C020E03FEF4FE757E468A100
:1027900079A18AA19BA10E941718882309F00CF443
:1027A0004EC020E030E040E251E46C8D7D8D8E8D96
:1027B0009F8D0E941C18C852DF4F688379838A83DB
:1027C0009B83C85DD040C852DF4F88819981AA8120
:1027D000BB81C85DD040E8968CAF9DAFAEAFBFAFB8
:1027E000E897E8966CAD7DAD8EAD9FADE8970E9401
:1027F0007317C452DF4F688379838A839B83CC5DD0
:10280000D040C452DF4FA881B981CC5DD040BDA378
:10281000ACA310C089E190E09FA38EA38EA19FA1DD
:102820000197F1F79FA38EA300008CA19DA10197B2
:102830009DA38CA38CA19DA1009761F764C068A1A2
:1028400079A18AA19BA10E947317C052DF4F6883B0
:1028500079838A839B83C05ED040C052DF4FE8817A
:10286000F981C05ED040FDA3ECA38CA19DA199A7E6
:1028700088A788A599A50197F1F799A788A743C0CC
:1028800020E030E04FE753E46B897C898D899E8995
:102890000E941718882319F114F16F89788D898D9A
:1028A0009A8D0E947317CC51DF4F688379838A8396
:1028B0009B83C45ED040CC51DF4F88819981C45E38
:1028C000D0409BA78AA78AA59BA59DA78CA78CA56E
:1028D0009DA50197F1F79DA78CA700001BC06B89F0
:1028E0007C898D899E890E947317C851DF4F688348
:1028F00079838A839B83C85ED040C851DF4F98811B
:10290000C85ED0409B8F8B8D8EA78EA58A95F1F7E0
:102910008EA7000040E062E082E00E949B0380E01E
:1029200090E0A0E0B0E489839A83AB83BC8320E08D
:1029300030E04AE753E469817A818B819C810E946F
:102940001C18C451DF4F688379838A839B83CC5ED4
:10295000D040C451DF4F88819981AA81BB81CC5E70
:10296000D0408D839E83AF83B88720E030E040E87D
:102970005FE36D817E818F8198850E94FC1688239C
:102980002CF481E090E09A87898772C020E03FEFC5
:102990004FE757E46D817E818F8198850E941718DB
:1029A000882309F00CF44EC020E030E040E251E40E
:1029B00069817A818B819C810E941C18C051DF4FF4
:1029C000688379838A839B83C05FD040C051DF4F87
:1029D00088819981AA81BB81C05FD040E4968CAF89
:1029E0009DAFAEAFBFAFE497E4966CAD7DAD8EAD5D
:1029F0009FADE4970E947317CC50DF4F68837983B3
:102A00008A839B83C45FD040CC50DF4FA881B981BB
:102A1000C45FD040BA87A98710C089E190E09C8745
:102A20008B878B859C850197F1F79C878B870000AE
:102A300089859A8501979A87898789859A850097DC
:102A400061F721C06D817E818F8198850E94731707
:102A5000C850DF4F688379838A839B83C85FD040E7
:102A6000C850DF4FE881F981C85FD040FA87E98715
:102A700089859A859E878D878D859E850197F1F73B
:102A80009E878D8700000000C550DF4F0FB6F89479
:102A9000DEBF0FBECDBFDF91CF911F910F91089583
:102AA000CF93DF9300D000D0CDB7DEB79C838B836C
:102AB0001A8219820FC089819A812B813C81820FF1
:102AC000931FFC0180810E94800E89819A8101966A
:102AD0009A83898389819A812B813C81820F931FFC
:102AE000FC018081882339F7000000000F900F90CF
:102AF0000F900F90DF91CF910895CF93DF9300D087
:102B00000F92CDB7DEB78A836B838A8189838B81ED
:102B1000882F90E083309105E1F08330910509F032
:102B2000E4F48230910589F08230910509F0ACF42B
:102B3000009721F08130910521F00FC08A818983AF
:102B40000CC08A818054898308C08A818C5689830D
:102B500004C08A818C5289830000898180680E9428
:102B6000B00700000F900F900F90DF91CF91089564
:102B7000CF93DF93CDB7DEB763970FB6F894DEBF80
:102B80000FBECDBF9B8B8A8B8A899B894AE050E020
:102B90009E012F5F3F4FB9010E948918CE01019617
:102BA0000E945015000063960FB6F894DEBF0FBE6A
:102BB000CDBFDF91CF910895CF93DF93CDB7DEB72F
:102BC00040E060E083E00E94B00240E061E083E02A
:102BD0000E94B00240E062E083E00E94B00240E068
:102BE00063E083E00E94B00241E060E083E00E9485
:102BF0009B0341E061E083E00E949B0341E062E0CF
:102C000083E00E949B0341E063E083E00E949B031A
:102C100041E064E083E00E94B00241E065E083E0CF
:102C20000E94B00241E066E083E00E94B00241E011
:102C300067E083E00E94B00241E064E083E00E942C
:102C40009B0341E065E083E00E949B0341E066E076
:102C500083E00E949B0341E067E083E00E949B03C6
:102C60000000DF91CF910895CF93DF9300D000D083
:102C7000CDB7DEB78FEF8C831A8256C08A81882F3A
:102C800090E0805A9F4FFC01808140E0682F83E0F4
:102C90000E949B031B8235C08B81882F90E08C594A
:102CA0009F4FFC018081682F83E00E948604898306
:102CB0008981882319F58B81282F30E08A81882F1C
:102CC00090E0220F331F220F331F820F931F88596A
:102CD0009F4FFC0180818C830CC08B81882F90E0FA
:102CE0008C599F4FFC018081682F83E00E948604ED
:102CF00089838981882389F38C811CC08B818F5FB4
:102D00008B838B81833041F238F28A81882F90E067
:102D1000805A9F4FFC01808141E0682F83E00E9430
:102D20009B038A818F5F8A838A81833009F008F44C
:102D3000A5CF8C810F900F900F900F90DF91CF91C6
:102D40000895CF93DF93CDB7DEB70E947E0041E0B8
:102D500060E080E00E94B00241E060E080E00E941C
:102D60009B0382E390E00E94350140E060E080E058
:102D70000E949B0382E390E00E9435010000ECCFAB
:102D8000A1E21A2EAA1BBB1BFD010DC0AA1FBB1F6F
:102D9000EE1FFF1FA217B307E407F50720F0A21BE1
:102DA000B30BE40BF50B661F771F881F991F1A944E
:102DB00069F760957095809590959B01AC01BD0178
:102DC000CF0108950E94ED16A59F900DB49F900D20
:102DD000A49F800D911D11240895A29FB001B39F5F
:102DE000C001A39F700D811D1124911DB29F700D14
:102DF000811D1124911D08950E94A21708F481E0FD
:102E000008950E9415170C94DD170E94D61758F0EC
:102E10000E94CF1740F029F45F3F29F00C94C617A9
:102E200051110C9411180C94CC170E94EE1768F3F2
:102E30009923B1F3552391F3951B550BBB27AA2773
:102E400062177307840738F09F5F5F4F220F331FAD
:102E5000441FAA1FA9F335D00E2E3AF0E0E832D075
:102E600091505040E695001CCAF72BD0FE2F29D078
:102E7000660F771F881FBB1F261737074807AB074A
:102E8000B0E809F0BB0B802DBF01FF2793585F4FBF
:102E90003AF09E3F510578F00C94C6170C94111827
:102EA0005F3FE4F3983ED4F3869577956795B795A1
:102EB000F7959F5FC9F7880F911D9695879597F9AC
:102EC0000895E1E0660F771F881FBB1F6217730725
:102ED0008407BA0720F0621B730B840BBA0BEE1F3A
:102EE00088F7E09508950E94F61788F09F5798F0AC
:102EF000B92F9927B751B0F0E1F0660F771F881FFF
:102F0000991F1AF0BA95C9F714C0B13091F00E9418
:102F10001018B1E008950C941018672F782F8827A7
:102F2000B85F39F0B93FCCF3869577956795B3953F
:102F3000D9F73EF490958095709561957F4F8F4FAE
:102F40009F4F0895990F0008550FAA0BE0E8FEEF78
:102F500016161706E807F907C0F012161306E4075D
:102F6000F50798F0621B730B840B950B39F40A2656
:102F700061F0232B242B252B21F408950A2609F434
:102F8000A140A6958FEF811D811D089597F99F6738
:102F900080E870E060E008959FEF80EC08950024E1
:102FA0000A941616170618060906089500240A94AE
:102FB00012161306140605060895092E0394000C34
:102FC00011F4882352F0BB0F40F4BF2B11F460FFC3
:102FD00004C06F5F7F4F8F4F9F4F089557FD9058EC
:102FE000440F551F59F05F3F71F04795880F97FBCD
:102FF000991F61F09F3F79F0879508951216130687
:103000001406551FF2CF4695F1DF08C016161706B5
:103010001806991FF1CF86957105610508940895EA
:10302000E894BB2766277727CB0197F908950E947C
:10303000A21708F48FEF08950E942F180C94DD1743
:103040000E94CF1738F00E94D61720F0952311F078
:103050000C94C6170C94CC1711240C9411180E94D0
:10306000EE1770F3959FC1F3950F50E0551F629FC7
:10307000F001729FBB27F00DB11D639FAA27F00DD1
:10308000B11DAA1F649F6627B00DA11D661F829FF8
:103090002227B00DA11D621F739FB00DA11D621FDD
:1030A000839FA00D611D221F749F3327A00D611DFA
:1030B000231F849F600D211D822F762F6A2F1124DC
:1030C0009F5750409AF0F1F088234AF0EE0FFF1F0F
:1030D000BB1F661F771F881F91505040A9F79E3F66
:1030E000510580F00C94C6170C9411185F3FE4F35F
:1030F000983ED4F3869577956795B795F795E795BC
:103100009F5FC1F7FE2B880F911D9695879597F9C4
:1031100008954532510520F4423010F00C94941873
:10312000FB011082CB010895BB274A3031F499236B
:1031300022F4BDE2909581959F4F0C94A018BB2777
:10314000FB015527AA27880F991FAA1FA41710F063
:10315000A41B83955051B9F7A05DAA3308F0A95D6F
:10316000A193009779F7B111B1931192CB010C940F
:10317000B918DC01FC01672F71917723E1F73297D1
:1031800004C07C916D9370836291AE17BF07C8F342
:063190000895F894FFCF42
:1031960004050607000102033738392F3435362A6D
:0831A6003132332D23303D2BA3
:00000001FF
